{
  "contractName": "Spacebear",
  "abi": [
    {
      "inputs": [],
      "stateMutability": "nonpayable",
      "type": "constructor"
    },
    {
      "anonymous": false,
      "inputs": [
        {
          "indexed": true,
          "internalType": "address",
          "name": "owner",
          "type": "address"
        },
        {
          "indexed": true,
          "internalType": "address",
          "name": "approved",
          "type": "address"
        },
        {
          "indexed": true,
          "internalType": "uint256",
          "name": "tokenId",
          "type": "uint256"
        }
      ],
      "name": "Approval",
      "type": "event"
    },
    {
      "anonymous": false,
      "inputs": [
        {
          "indexed": true,
          "internalType": "address",
          "name": "owner",
          "type": "address"
        },
        {
          "indexed": true,
          "internalType": "address",
          "name": "operator",
          "type": "address"
        },
        {
          "indexed": false,
          "internalType": "bool",
          "name": "approved",
          "type": "bool"
        }
      ],
      "name": "ApprovalForAll",
      "type": "event"
    },
    {
      "anonymous": false,
      "inputs": [
        {
          "indexed": true,
          "internalType": "address",
          "name": "previousOwner",
          "type": "address"
        },
        {
          "indexed": true,
          "internalType": "address",
          "name": "newOwner",
          "type": "address"
        }
      ],
      "name": "OwnershipTransferred",
      "type": "event"
    },
    {
      "anonymous": false,
      "inputs": [
        {
          "indexed": true,
          "internalType": "address",
          "name": "from",
          "type": "address"
        },
        {
          "indexed": true,
          "internalType": "address",
          "name": "to",
          "type": "address"
        },
        {
          "indexed": true,
          "internalType": "uint256",
          "name": "tokenId",
          "type": "uint256"
        }
      ],
      "name": "Transfer",
      "type": "event"
    },
    {
      "inputs": [
        {
          "internalType": "address",
          "name": "to",
          "type": "address"
        },
        {
          "internalType": "uint256",
          "name": "tokenId",
          "type": "uint256"
        }
      ],
      "name": "approve",
      "outputs": [],
      "stateMutability": "nonpayable",
      "type": "function"
    },
    {
      "inputs": [
        {
          "internalType": "address",
          "name": "owner",
          "type": "address"
        }
      ],
      "name": "balanceOf",
      "outputs": [
        {
          "internalType": "uint256",
          "name": "",
          "type": "uint256"
        }
      ],
      "stateMutability": "view",
      "type": "function",
      "constant": true
    },
    {
      "inputs": [
        {
          "internalType": "uint256",
          "name": "tokenId",
          "type": "uint256"
        }
      ],
      "name": "getApproved",
      "outputs": [
        {
          "internalType": "address",
          "name": "",
          "type": "address"
        }
      ],
      "stateMutability": "view",
      "type": "function",
      "constant": true
    },
    {
      "inputs": [
        {
          "internalType": "address",
          "name": "owner",
          "type": "address"
        },
        {
          "internalType": "address",
          "name": "operator",
          "type": "address"
        }
      ],
      "name": "isApprovedForAll",
      "outputs": [
        {
          "internalType": "bool",
          "name": "",
          "type": "bool"
        }
      ],
      "stateMutability": "view",
      "type": "function",
      "constant": true
    },
    {
      "inputs": [],
      "name": "name",
      "outputs": [
        {
          "internalType": "string",
          "name": "",
          "type": "string"
        }
      ],
      "stateMutability": "view",
      "type": "function",
      "constant": true
    },
    {
      "inputs": [],
      "name": "owner",
      "outputs": [
        {
          "internalType": "address",
          "name": "",
          "type": "address"
        }
      ],
      "stateMutability": "view",
      "type": "function",
      "constant": true
    },
    {
      "inputs": [
        {
          "internalType": "uint256",
          "name": "tokenId",
          "type": "uint256"
        }
      ],
      "name": "ownerOf",
      "outputs": [
        {
          "internalType": "address",
          "name": "",
          "type": "address"
        }
      ],
      "stateMutability": "view",
      "type": "function",
      "constant": true
    },
    {
      "inputs": [],
      "name": "renounceOwnership",
      "outputs": [],
      "stateMutability": "nonpayable",
      "type": "function"
    },
    {
      "inputs": [
        {
          "internalType": "address",
          "name": "from",
          "type": "address"
        },
        {
          "internalType": "address",
          "name": "to",
          "type": "address"
        },
        {
          "internalType": "uint256",
          "name": "tokenId",
          "type": "uint256"
        }
      ],
      "name": "safeTransferFrom",
      "outputs": [],
      "stateMutability": "nonpayable",
      "type": "function"
    },
    {
      "inputs": [
        {
          "internalType": "address",
          "name": "from",
          "type": "address"
        },
        {
          "internalType": "address",
          "name": "to",
          "type": "address"
        },
        {
          "internalType": "uint256",
          "name": "tokenId",
          "type": "uint256"
        },
        {
          "internalType": "bytes",
          "name": "data",
          "type": "bytes"
        }
      ],
      "name": "safeTransferFrom",
      "outputs": [],
      "stateMutability": "nonpayable",
      "type": "function"
    },
    {
      "inputs": [
        {
          "internalType": "address",
          "name": "operator",
          "type": "address"
        },
        {
          "internalType": "bool",
          "name": "approved",
          "type": "bool"
        }
      ],
      "name": "setApprovalForAll",
      "outputs": [],
      "stateMutability": "nonpayable",
      "type": "function"
    },
    {
      "inputs": [
        {
          "internalType": "bytes4",
          "name": "interfaceId",
          "type": "bytes4"
        }
      ],
      "name": "supportsInterface",
      "outputs": [
        {
          "internalType": "bool",
          "name": "",
          "type": "bool"
        }
      ],
      "stateMutability": "view",
      "type": "function",
      "constant": true
    },
    {
      "inputs": [],
      "name": "symbol",
      "outputs": [
        {
          "internalType": "string",
          "name": "",
          "type": "string"
        }
      ],
      "stateMutability": "view",
      "type": "function",
      "constant": true
    },
    {
      "inputs": [
        {
          "internalType": "address",
          "name": "from",
          "type": "address"
        },
        {
          "internalType": "address",
          "name": "to",
          "type": "address"
        },
        {
          "internalType": "uint256",
          "name": "tokenId",
          "type": "uint256"
        }
      ],
      "name": "transferFrom",
      "outputs": [],
      "stateMutability": "nonpayable",
      "type": "function"
    },
    {
      "inputs": [
        {
          "internalType": "address",
          "name": "newOwner",
          "type": "address"
        }
      ],
      "name": "transferOwnership",
      "outputs": [],
      "stateMutability": "nonpayable",
      "type": "function"
    },
    {
      "inputs": [
        {
          "internalType": "address",
          "name": "to",
          "type": "address"
        }
      ],
      "name": "safeMint",
      "outputs": [],
      "stateMutability": "nonpayable",
      "type": "function"
    },
    {
      "inputs": [],
      "name": "buyToken",
      "outputs": [],
      "stateMutability": "payable",
      "type": "function",
      "payable": true
    },
    {
      "inputs": [
        {
          "internalType": "uint256",
          "name": "tokenId",
          "type": "uint256"
        }
      ],
      "name": "tokenURI",
      "outputs": [
        {
          "internalType": "string",
          "name": "",
          "type": "string"
        }
      ],
      "stateMutability": "pure",
      "type": "function",
      "constant": true
    }
  ],
  "bytecode": "0x60806040523480156200001157600080fd5b506040518060400160405280600981526020017f53706163656265617200000000000000000000000000000000000000000000008152506040518060400160405280600381526020017f5342520000000000000000000000000000000000000000000000000000000000815250816000908051906020019062000096929190620001a6565b508060019080519060200190620000af929190620001a6565b505050620000d2620000c6620000d860201b60201c565b620000e060201b60201c565b620002bb565b600033905090565b6000600660009054906101000a900473ffffffffffffffffffffffffffffffffffffffff16905081600660006101000a81548173ffffffffffffffffffffffffffffffffffffffff021916908373ffffffffffffffffffffffffffffffffffffffff1602179055508173ffffffffffffffffffffffffffffffffffffffff168173ffffffffffffffffffffffffffffffffffffffff167f8be0079c531659141344cd1fd0a4f28419497f9722a3daafe3b4186f6b6457e060405160405180910390a35050565b828054620001b49062000285565b90600052602060002090601f016020900481019282620001d8576000855562000224565b82601f10620001f357805160ff191683800117855562000224565b8280016001018555821562000224579182015b828111156200022357825182559160200191906001019062000206565b5b50905062000233919062000237565b5090565b5b808211156200025257600081600090555060010162000238565b5090565b7f4e487b7100000000000000000000000000000000000000000000000000000000600052602260045260246000fd5b600060028204905060018216806200029e57607f821691505b60208210811415620002b557620002b462000256565b5b50919050565b612ab880620002cb6000396000f3fe6080604052600436106101095760003560e01c8063715018a611610095578063a482171911610064578063a482171914610367578063b88d4fde14610371578063c87b56dd1461039a578063e985e9c5146103d7578063f2fde38b1461041457610109565b8063715018a6146102d15780638da5cb5b146102e857806395d89b4114610313578063a22cb4651461033e57610109565b806323b872dd116100dc57806323b872dd146101dc57806340d097c31461020557806342842e0e1461022e5780636352211e1461025757806370a082311461029457610109565b806301ffc9a71461010e57806306fdde031461014b578063081812fc14610176578063095ea7b3146101b3575b600080fd5b34801561011a57600080fd5b50610135600480360381019061013091906119f5565b61043d565b6040516101429190611a3d565b60405180910390f35b34801561015757600080fd5b5061016061051f565b60405161016d9190611af1565b60405180910390f35b34801561018257600080fd5b5061019d60048036038101906101989190611b49565b6105b1565b6040516101aa9190611bb7565b60405180910390f35b3480156101bf57600080fd5b506101da60048036038101906101d59190611bfe565b6105f7565b005b3480156101e857600080fd5b5061020360048036038101906101fe9190611c3e565b61070f565b005b34801561021157600080fd5b5061022c60048036038101906102279190611c91565b61076f565b005b34801561023a57600080fd5b5061025560048036038101906102509190611c3e565b61079d565b005b34801561026357600080fd5b5061027e60048036038101906102799190611b49565b6107bd565b60405161028b9190611bb7565b60405180910390f35b3480156102a057600080fd5b506102bb60048036038101906102b69190611c91565b61086f565b6040516102c89190611ccd565b60405180910390f35b3480156102dd57600080fd5b506102e6610927565b005b3480156102f457600080fd5b506102fd61093b565b60405161030a9190611bb7565b60405180910390f35b34801561031f57600080fd5b50610328610965565b6040516103359190611af1565b60405180910390f35b34801561034a57600080fd5b5061036560048036038101906103609190611d14565b6109f7565b005b61036f610a0d565b005b34801561037d57600080fd5b5061039860048036038101906103939190611e89565b610ac7565b005b3480156103a657600080fd5b506103c160048036038101906103bc9190611b49565b610b29565b6040516103ce9190611af1565b60405180910390f35b3480156103e357600080fd5b506103fe60048036038101906103f99190611f0c565b610b67565b60405161040b9190611a3d565b60405180910390f35b34801561042057600080fd5b5061043b60048036038101906104369190611c91565b610bfb565b005b60007f80ac58cd000000000000000000000000000000000000000000000000000000007bffffffffffffffffffffffffffffffffffffffffffffffffffffffff1916827bffffffffffffffffffffffffffffffffffffffffffffffffffffffff1916148061050857507f5b5e139f000000000000000000000000000000000000000000000000000000007bffffffffffffffffffffffffffffffffffffffffffffffffffffffff1916827bffffffffffffffffffffffffffffffffffffffffffffffffffffffff1916145b80610518575061051782610c7f565b5b9050919050565b60606000805461052e90611f7b565b80601f016020809104026020016040519081016040528092919081815260200182805461055a90611f7b565b80156105a75780601f1061057c576101008083540402835291602001916105a7565b820191906000526020600020905b81548152906001019060200180831161058a57829003601f168201915b5050505050905090565b60006105bc82610ce9565b6004600083815260200190815260200160002060009054906101000a900473ffffffffffffffffffffffffffffffffffffffff169050919050565b6000610602826107bd565b90508073ffffffffffffffffffffffffffffffffffffffff168373ffffffffffffffffffffffffffffffffffffffff161415610673576040517f08c379a000000000000000000000000000000000000000000000000000000000815260040161066a9061201f565b60405180910390fd5b8073ffffffffffffffffffffffffffffffffffffffff16610692610d34565b73ffffffffffffffffffffffffffffffffffffffff1614806106c157506106c0816106bb610d34565b610b67565b5b610700576040517f08c379a00000000000000000000000000000000000000000000000000000000081526004016106f7906120b1565b60405180910390fd5b61070a8383610d3c565b505050565b61072061071a610d34565b82610df5565b61075f576040517f08c379a000000000000000000000000000000000000000000000000000000000815260040161075690612143565b60405180910390fd5b61076a838383610e8a565b505050565b6107776110f1565b6000610783600761116f565b905061078f600761117d565b6107998282611193565b5050565b6107b883838360405180602001604052806000815250610ac7565b505050565b6000806002600084815260200190815260200160002060009054906101000a900473ffffffffffffffffffffffffffffffffffffffff169050600073ffffffffffffffffffffffffffffffffffffffff168173ffffffffffffffffffffffffffffffffffffffff161415610866576040517f08c379a000000000000000000000000000000000000000000000000000000000815260040161085d906121af565b60405180910390fd5b80915050919050565b60008073ffffffffffffffffffffffffffffffffffffffff168273ffffffffffffffffffffffffffffffffffffffff1614156108e0576040517f08c379a00000000000000000000000000000000000000000000000000000000081526004016108d790612241565b60405180910390fd5b600360008373ffffffffffffffffffffffffffffffffffffffff1673ffffffffffffffffffffffffffffffffffffffff168152602001908152602001600020549050919050565b61092f6110f1565b61093960006111b1565b565b6000600660009054906101000a900473ffffffffffffffffffffffffffffffffffffffff16905090565b60606001805461097490611f7b565b80601f01602080910402602001604051908101604052809291908181526020018280546109a090611f7b565b80156109ed5780601f106109c2576101008083540402835291602001916109ed565b820191906000526020600020905b8154815290600101906020018083116109d057829003601f168201915b5050505050905090565b610a09610a02610d34565b8383611277565b5050565b6000610a19600761116f565b9050610a5b6040518060400160405280600881526020017f627579546f6b656e00000000000000000000000000000000000000000000000081525082346113e4565b67016345785d8a000081610a6f9190612290565b3414610ab0576040517f08c379a0000000000000000000000000000000000000000000000000000000008152600401610aa790612336565b60405180910390fd5b610aba600761117d565b610ac43382611193565b50565b610ad8610ad2610d34565b83610df5565b610b17576040517f08c379a0000000000000000000000000000000000000000000000000000000008152600401610b0e90612143565b60405180910390fd5b610b2384848484611483565b50505050565b6060610b336114df565b600183610b409190612356565b604051602001610b519291906124a1565b6040516020818303038152906040529050919050565b6000600560008473ffffffffffffffffffffffffffffffffffffffff1673ffffffffffffffffffffffffffffffffffffffff16815260200190815260200160002060008373ffffffffffffffffffffffffffffffffffffffff1673ffffffffffffffffffffffffffffffffffffffff16815260200190815260200160002060009054906101000a900460ff16905092915050565b610c036110f1565b600073ffffffffffffffffffffffffffffffffffffffff168173ffffffffffffffffffffffffffffffffffffffff161415610c73576040517f08c379a0000000000000000000000000000000000000000000000000000000008152600401610c6a90612551565b60405180910390fd5b610c7c816111b1565b50565b60007f01ffc9a7000000000000000000000000000000000000000000000000000000007bffffffffffffffffffffffffffffffffffffffffffffffffffffffff1916827bffffffffffffffffffffffffffffffffffffffffffffffffffffffff1916149050919050565b610cf2816114ff565b610d31576040517f08c379a0000000000000000000000000000000000000000000000000000000008152600401610d28906121af565b60405180910390fd5b50565b600033905090565b816004600083815260200190815260200160002060006101000a81548173ffffffffffffffffffffffffffffffffffffffff021916908373ffffffffffffffffffffffffffffffffffffffff160217905550808273ffffffffffffffffffffffffffffffffffffffff16610daf836107bd565b73ffffffffffffffffffffffffffffffffffffffff167f8c5be1e5ebec7d5bd14f71427d1e84f3dd0314c0f7b2291e5b200ac8c7c3b92560405160405180910390a45050565b600080610e01836107bd565b90508073ffffffffffffffffffffffffffffffffffffffff168473ffffffffffffffffffffffffffffffffffffffff161480610e435750610e428185610b67565b5b80610e8157508373ffffffffffffffffffffffffffffffffffffffff16610e69846105b1565b73ffffffffffffffffffffffffffffffffffffffff16145b91505092915050565b8273ffffffffffffffffffffffffffffffffffffffff16610eaa826107bd565b73ffffffffffffffffffffffffffffffffffffffff1614610f00576040517f08c379a0000000000000000000000000000000000000000000000000000000008152600401610ef7906125e3565b60405180910390fd5b600073ffffffffffffffffffffffffffffffffffffffff168273ffffffffffffffffffffffffffffffffffffffff161415610f70576040517f08c379a0000000000000000000000000000000000000000000000000000000008152600401610f6790612675565b60405180910390fd5b610f7b83838361156b565b610f86600082610d3c565b6001600360008573ffffffffffffffffffffffffffffffffffffffff1673ffffffffffffffffffffffffffffffffffffffff1681526020019081526020016000206000828254610fd69190612695565b925050819055506001600360008473ffffffffffffffffffffffffffffffffffffffff1673ffffffffffffffffffffffffffffffffffffffff168152602001908152602001600020600082825461102d9190612356565b92505081905550816002600083815260200190815260200160002060006101000a81548173ffffffffffffffffffffffffffffffffffffffff021916908373ffffffffffffffffffffffffffffffffffffffff160217905550808273ffffffffffffffffffffffffffffffffffffffff168473ffffffffffffffffffffffffffffffffffffffff167fddf252ad1be2c89b69c2b068fc378daa952ba7f163c4a11628f55a4df523b3ef60405160405180910390a46110ec838383611570565b505050565b6110f9610d34565b73ffffffffffffffffffffffffffffffffffffffff1661111761093b565b73ffffffffffffffffffffffffffffffffffffffff161461116d576040517f08c379a000000000000000000000000000000000000000000000000000000000815260040161116490612715565b60405180910390fd5b565b600081600001549050919050565b6001816000016000828254019250508190555050565b6111ad828260405180602001604052806000815250611575565b5050565b6000600660009054906101000a900473ffffffffffffffffffffffffffffffffffffffff16905081600660006101000a81548173ffffffffffffffffffffffffffffffffffffffff021916908373ffffffffffffffffffffffffffffffffffffffff1602179055508173ffffffffffffffffffffffffffffffffffffffff168173ffffffffffffffffffffffffffffffffffffffff167f8be0079c531659141344cd1fd0a4f28419497f9722a3daafe3b4186f6b6457e060405160405180910390a35050565b8173ffffffffffffffffffffffffffffffffffffffff168373ffffffffffffffffffffffffffffffffffffffff1614156112e6576040517f08c379a00000000000000000000000000000000000000000000000000000000081526004016112dd90612781565b60405180910390fd5b80600560008573ffffffffffffffffffffffffffffffffffffffff1673ffffffffffffffffffffffffffffffffffffffff16815260200190815260200160002060008473ffffffffffffffffffffffffffffffffffffffff1673ffffffffffffffffffffffffffffffffffffffff16815260200190815260200160002060006101000a81548160ff0219169083151502179055508173ffffffffffffffffffffffffffffffffffffffff168373ffffffffffffffffffffffffffffffffffffffff167f17307eab39ab6107e8899845ad3d59bd9653f200f220920489ca2b5937696c31836040516113d79190611a3d565b60405180910390a3505050565b61147e8383836040516024016113fc939291906127a1565b6040516020818303038152906040527fca47c4eb000000000000000000000000000000000000000000000000000000007bffffffffffffffffffffffffffffffffffffffffffffffffffffffff19166020820180517bffffffffffffffffffffffffffffffffffffffffffffffffffffffff83818316178352505050506115d0565b505050565b61148e848484610e8a565b61149a848484846115f5565b6114d9576040517f08c379a00000000000000000000000000000000000000000000000000000000081526004016114d090612851565b60405180910390fd5b50505050565b6060604051806080016040528060568152602001612a2d60569139905090565b60008073ffffffffffffffffffffffffffffffffffffffff166002600084815260200190815260200160002060009054906101000a900473ffffffffffffffffffffffffffffffffffffffff1673ffffffffffffffffffffffffffffffffffffffff1614159050919050565b505050565b505050565b61157f838361178c565b61158c60008484846115f5565b6115cb576040517f08c379a00000000000000000000000000000000000000000000000000000000081526004016115c290612851565b60405180910390fd5b505050565b60006a636f6e736f6c652e6c6f6790508151602083016000808383865afa5050505050565b60006116168473ffffffffffffffffffffffffffffffffffffffff16611966565b1561177f578373ffffffffffffffffffffffffffffffffffffffff1663150b7a0261163f610d34565b8786866040518563ffffffff1660e01b815260040161166194939291906128c6565b602060405180830381600087803b15801561167b57600080fd5b505af19250505080156116ac57506040513d601f19601f820116820180604052508101906116a99190612927565b60015b61172f573d80600081146116dc576040519150601f19603f3d011682016040523d82523d6000602084013e6116e1565b606091505b50600081511415611727576040517f08c379a000000000000000000000000000000000000000000000000000000000815260040161171e90612851565b60405180910390fd5b805181602001fd5b63150b7a0260e01b7bffffffffffffffffffffffffffffffffffffffffffffffffffffffff1916817bffffffffffffffffffffffffffffffffffffffffffffffffffffffff191614915050611784565b600190505b949350505050565b600073ffffffffffffffffffffffffffffffffffffffff168273ffffffffffffffffffffffffffffffffffffffff1614156117fc576040517f08c379a00000000000000000000000000000000000000000000000000000000081526004016117f3906129a0565b60405180910390fd5b611805816114ff565b15611845576040517f08c379a000000000000000000000000000000000000000000000000000000000815260040161183c90612a0c565b60405180910390fd5b6118516000838361156b565b6001600360008473ffffffffffffffffffffffffffffffffffffffff1673ffffffffffffffffffffffffffffffffffffffff16815260200190815260200160002060008282546118a19190612356565b92505081905550816002600083815260200190815260200160002060006101000a81548173ffffffffffffffffffffffffffffffffffffffff021916908373ffffffffffffffffffffffffffffffffffffffff160217905550808273ffffffffffffffffffffffffffffffffffffffff16600073ffffffffffffffffffffffffffffffffffffffff167fddf252ad1be2c89b69c2b068fc378daa952ba7f163c4a11628f55a4df523b3ef60405160405180910390a461196260008383611570565b5050565b6000808273ffffffffffffffffffffffffffffffffffffffff163b119050919050565b6000604051905090565b600080fd5b600080fd5b60007fffffffff0000000000000000000000000000000000000000000000000000000082169050919050565b6119d28161199d565b81146119dd57600080fd5b50565b6000813590506119ef816119c9565b92915050565b600060208284031215611a0b57611a0a611993565b5b6000611a19848285016119e0565b91505092915050565b60008115159050919050565b611a3781611a22565b82525050565b6000602082019050611a526000830184611a2e565b92915050565b600081519050919050565b600082825260208201905092915050565b60005b83811015611a92578082015181840152602081019050611a77565b83811115611aa1576000848401525b50505050565b6000601f19601f8301169050919050565b6000611ac382611a58565b611acd8185611a63565b9350611add818560208601611a74565b611ae681611aa7565b840191505092915050565b60006020820190508181036000830152611b0b8184611ab8565b905092915050565b6000819050919050565b611b2681611b13565b8114611b3157600080fd5b50565b600081359050611b4381611b1d565b92915050565b600060208284031215611b5f57611b5e611993565b5b6000611b6d84828501611b34565b91505092915050565b600073ffffffffffffffffffffffffffffffffffffffff82169050919050565b6000611ba182611b76565b9050919050565b611bb181611b96565b82525050565b6000602082019050611bcc6000830184611ba8565b92915050565b611bdb81611b96565b8114611be657600080fd5b50565b600081359050611bf881611bd2565b92915050565b60008060408385031215611c1557611c14611993565b5b6000611c2385828601611be9565b9250506020611c3485828601611b34565b9150509250929050565b600080600060608486031215611c5757611c56611993565b5b6000611c6586828701611be9565b9350506020611c7686828701611be9565b9250506040611c8786828701611b34565b9150509250925092565b600060208284031215611ca757611ca6611993565b5b6000611cb584828501611be9565b91505092915050565b611cc781611b13565b82525050565b6000602082019050611ce26000830184611cbe565b92915050565b611cf181611a22565b8114611cfc57600080fd5b50565b600081359050611d0e81611ce8565b92915050565b60008060408385031215611d2b57611d2a611993565b5b6000611d3985828601611be9565b9250506020611d4a85828601611cff565b9150509250929050565b600080fd5b600080fd5b7f4e487b7100000000000000000000000000000000000000000000000000000000600052604160045260246000fd5b611d9682611aa7565b810181811067ffffffffffffffff82111715611db557611db4611d5e565b5b80604052505050565b6000611dc8611989565b9050611dd48282611d8d565b919050565b600067ffffffffffffffff821115611df457611df3611d5e565b5b611dfd82611aa7565b9050602081019050919050565b82818337600083830152505050565b6000611e2c611e2784611dd9565b611dbe565b905082815260208101848484011115611e4857611e47611d59565b5b611e53848285611e0a565b509392505050565b600082601f830112611e7057611e6f611d54565b5b8135611e80848260208601611e19565b91505092915050565b60008060008060808587031215611ea357611ea2611993565b5b6000611eb187828801611be9565b9450506020611ec287828801611be9565b9350506040611ed387828801611b34565b925050606085013567ffffffffffffffff811115611ef457611ef3611998565b5b611f0087828801611e5b565b91505092959194509250565b60008060408385031215611f2357611f22611993565b5b6000611f3185828601611be9565b9250506020611f4285828601611be9565b9150509250929050565b7f4e487b7100000000000000000000000000000000000000000000000000000000600052602260045260246000fd5b60006002820490506001821680611f9357607f821691505b60208210811415611fa757611fa6611f4c565b5b50919050565b7f4552433732313a20617070726f76616c20746f2063757272656e74206f776e6560008201527f7200000000000000000000000000000000000000000000000000000000000000602082015250565b6000612009602183611a63565b915061201482611fad565b604082019050919050565b6000602082019050818103600083015261203881611ffc565b9050919050565b7f4552433732313a20617070726f76652063616c6c6572206973206e6f7420746f60008201527f6b656e206f776e6572206e6f7220617070726f76656420666f7220616c6c0000602082015250565b600061209b603e83611a63565b91506120a68261203f565b604082019050919050565b600060208201905081810360008301526120ca8161208e565b9050919050565b7f4552433732313a2063616c6c6572206973206e6f7420746f6b656e206f776e6560008201527f72206e6f7220617070726f766564000000000000000000000000000000000000602082015250565b600061212d602e83611a63565b9150612138826120d1565b604082019050919050565b6000602082019050818103600083015261215c81612120565b9050919050565b7f4552433732313a20696e76616c696420746f6b656e2049440000000000000000600082015250565b6000612199601883611a63565b91506121a482612163565b602082019050919050565b600060208201905081810360008301526121c88161218c565b9050919050565b7f4552433732313a2061646472657373207a65726f206973206e6f74206120766160008201527f6c6964206f776e65720000000000000000000000000000000000000000000000602082015250565b600061222b602983611a63565b9150612236826121cf565b604082019050919050565b6000602082019050818103600083015261225a8161221e565b9050919050565b7f4e487b7100000000000000000000000000000000000000000000000000000000600052601160045260246000fd5b600061229b82611b13565b91506122a683611b13565b9250817fffffffffffffffffffffffffffffffffffffffffffffffffffffffffffffffff04831182151516156122df576122de612261565b5b828202905092915050565b7f4e6f7420656e6f7567682066756e64732073656e740000000000000000000000600082015250565b6000612320601583611a63565b915061232b826122ea565b602082019050919050565b6000602082019050818103600083015261234f81612313565b9050919050565b600061236182611b13565b915061236c83611b13565b9250827fffffffffffffffffffffffffffffffffffffffffffffffffffffffffffffffff038211156123a1576123a0612261565b5b828201905092915050565b600081905092915050565b60006123c282611a58565b6123cc81856123ac565b93506123dc818560208601611a74565b80840191505092915050565b7f5f00000000000000000000000000000000000000000000000000000000000000600082015250565b600061241e6001836123ac565b9150612429826123e8565b600182019050919050565b6000819050919050565b61244f61244a82611b13565b612434565b82525050565b7f2e6a736f6e000000000000000000000000000000000000000000000000000000600082015250565b600061248b6005836123ac565b915061249682612455565b600582019050919050565b60006124ad82856123b7565b91506124b882612411565b91506124c4828461243e565b6020820191506124d38261247e565b91508190509392505050565b7f4f776e61626c653a206e6577206f776e657220697320746865207a65726f206160008201527f6464726573730000000000000000000000000000000000000000000000000000602082015250565b600061253b602683611a63565b9150612546826124df565b604082019050919050565b6000602082019050818103600083015261256a8161252e565b9050919050565b7f4552433732313a207472616e736665722066726f6d20696e636f72726563742060008201527f6f776e6572000000000000000000000000000000000000000000000000000000602082015250565b60006125cd602583611a63565b91506125d882612571565b604082019050919050565b600060208201905081810360008301526125fc816125c0565b9050919050565b7f4552433732313a207472616e7366657220746f20746865207a65726f2061646460008201527f7265737300000000000000000000000000000000000000000000000000000000602082015250565b600061265f602483611a63565b915061266a82612603565b604082019050919050565b6000602082019050818103600083015261268e81612652565b9050919050565b60006126a082611b13565b91506126ab83611b13565b9250828210156126be576126bd612261565b5b828203905092915050565b7f4f776e61626c653a2063616c6c6572206973206e6f7420746865206f776e6572600082015250565b60006126ff602083611a63565b915061270a826126c9565b602082019050919050565b6000602082019050818103600083015261272e816126f2565b9050919050565b7f4552433732313a20617070726f766520746f2063616c6c657200000000000000600082015250565b600061276b601983611a63565b915061277682612735565b602082019050919050565b6000602082019050818103600083015261279a8161275e565b9050919050565b600060608201905081810360008301526127bb8186611ab8565b90506127ca6020830185611cbe565b6127d76040830184611cbe565b949350505050565b7f4552433732313a207472616e7366657220746f206e6f6e20455243373231526560008201527f63656976657220696d706c656d656e7465720000000000000000000000000000602082015250565b600061283b603283611a63565b9150612846826127df565b604082019050919050565b6000602082019050818103600083015261286a8161282e565b9050919050565b600081519050919050565b600082825260208201905092915050565b600061289882612871565b6128a2818561287c565b93506128b2818560208601611a74565b6128bb81611aa7565b840191505092915050565b60006080820190506128db6000830187611ba8565b6128e86020830186611ba8565b6128f56040830185611cbe565b8181036060830152612907818461288d565b905095945050505050565b600081519050612921816119c9565b92915050565b60006020828403121561293d5761293c611993565b5b600061294b84828501612912565b91505092915050565b7f4552433732313a206d696e7420746f20746865207a65726f2061646472657373600082015250565b600061298a602083611a63565b915061299582612954565b602082019050919050565b600060208201905081810360008301526129b98161297d565b9050919050565b7f4552433732313a20746f6b656e20616c7265616479206d696e74656400000000600082015250565b60006129f6601c83611a63565b9150612a01826129c0565b602082019050919050565b60006020820190508181036000830152612a25816129e9565b905091905056fe68747470733a2f2f657468657265756d2d626c6f636b636861696e2d646576656c6f7065722e636f6d2f323032322d30362d6e66742d74727566666c652d686172646861742d666f756e6472792f6e6674646174612fa2646970667358221220fb904bb6afb4406ed43ac5241c06ee49fc35684f101a271f18596b06f9662c9a64736f6c63430008090033",
  "immutableReferences": {},
  "source": "// SPDX-License-Identifier: MIT\r\npragma solidity ^0.8.9;\r\n\r\nimport \"@openzeppelin/contracts/token/ERC721/ERC721.sol\";\r\nimport \"@openzeppelin/contracts/access/Ownable.sol\";\r\nimport \"@openzeppelin/contracts/utils/Counters.sol\";\r\nimport \"@ganache/console.log/console.sol\";\r\n\r\ncontract Spacebear is ERC721, Ownable {\r\n    using Counters for Counters.Counter;\r\n\r\n    Counters.Counter private _tokenIdCounter;\r\n\r\n    constructor() ERC721(\"Spacebear\", \"SBR\") {}\r\n\r\n    function _baseURI() internal pure override returns (string memory) {\r\n        return \"https://ethereum-blockchain-developer.com/2022-06-nft-truffle-hardhat-foundry/nftdata/\";\r\n    }\r\n\r\n    function safeMint(address to) public onlyOwner {\r\n        uint256 tokenId = _tokenIdCounter.current();\r\n        _tokenIdCounter.increment();\r\n        _safeMint(to, tokenId);\r\n    }\r\n\r\n    function buyToken() public payable {\r\n        uint256 tokenId = _tokenIdCounter.current();\r\n        console.log('buyToken', tokenId, msg.value);\r\n        require(msg.value == tokenId * 0.1 ether, \"Not enough funds sent\");\r\n\r\n        _tokenIdCounter.increment();\r\n        _safeMint(msg.sender, tokenId);\r\n    }\r\n\r\n    // The following functions are overrides required by Solidity.\r\n\r\n    function _burn(uint256 tokenId) internal override(ERC721) {\r\n        super._burn(tokenId);\r\n    }\r\n\r\n    function tokenURI(uint256 tokenId)\r\n        public\r\n        pure\r\n        override(ERC721)\r\n        returns (string memory)\r\n    {\r\n        return string(abi.encodePacked(_baseURI(),\"_\",tokenId+1,\".json\"));\r\n    }\r\n}",
  "sourcePath": "C:\\Users\\Home\\Programming\\NFTDev\\truffle\\contracts\\Spacebear.sol",
  "compiler": {
    "name": "solc",
    "version": "0.8.9+commit.e5eed63a.Emscripten.clang"
  },
  "schemaVersion": "3.4.10",
  "updatedAt": "2022-10-27T19:28:00.294Z",
  "networkType": "ethereum",
  "devdoc": {
    "kind": "dev",
    "methods": {
      "approve(address,uint256)": {
        "details": "See {IERC721-approve}."
      },
      "balanceOf(address)": {
        "details": "See {IERC721-balanceOf}."
      },
      "getApproved(uint256)": {
        "details": "See {IERC721-getApproved}."
      },
      "isApprovedForAll(address,address)": {
        "details": "See {IERC721-isApprovedForAll}."
      },
      "name()": {
        "details": "See {IERC721Metadata-name}."
      },
      "owner()": {
        "details": "Returns the address of the current owner."
      },
      "ownerOf(uint256)": {
        "details": "See {IERC721-ownerOf}."
      },
      "renounceOwnership()": {
        "details": "Leaves the contract without owner. It will not be possible to call `onlyOwner` functions anymore. Can only be called by the current owner. NOTE: Renouncing ownership will leave the contract without an owner, thereby removing any functionality that is only available to the owner."
      },
      "safeTransferFrom(address,address,uint256)": {
        "details": "See {IERC721-safeTransferFrom}."
      },
      "safeTransferFrom(address,address,uint256,bytes)": {
        "details": "See {IERC721-safeTransferFrom}."
      },
      "setApprovalForAll(address,bool)": {
        "details": "See {IERC721-setApprovalForAll}."
      },
      "supportsInterface(bytes4)": {
        "details": "See {IERC165-supportsInterface}."
      },
      "symbol()": {
        "details": "See {IERC721Metadata-symbol}."
      },
      "tokenURI(uint256)": {
        "details": "See {IERC721Metadata-tokenURI}."
      },
      "transferFrom(address,address,uint256)": {
        "details": "See {IERC721-transferFrom}."
      },
      "transferOwnership(address)": {
        "details": "Transfers ownership of the contract to a new account (`newOwner`). Can only be called by the current owner."
      }
    },
    "version": 1
  },
  "userdoc": {
    "kind": "user",
    "methods": {},
    "version": 1
  }
}